:100000000C9463000C948B000C948B000C948B006C
:100010000C948B000C948B000C948B000C9424019A
:100020000C948B000C948B000C948B000C948B0024
:100030000C948B000C948B000C948B000C948B0014
:100040000C94F2080C948B000C94BB0B0C94F70BE3
:100050000C948B000C948B000C948B000C948B00F4
:100060000C948B000C948B00000000070002010030
:100070000003040600000000000000000102040864
:100080001020408001020408102001020408102002
:10009000040404040404040402020202020203032E
:1000A00003030303000000002300260029000000D2
:1000B0000000250028002B0000000000240027007D
:1000C0002A00BE00B20C11241FBECFEFD8E0DEBF65
:1000D000CDBF11E0A0E0B1E0E0E1FFE102C005909A
:1000E0000D92A031B107D9F712E0A0E1B1E001C053
:1000F0001D92AD39B107E1F710E0C6ECD0E004C0C5
:100100002297FE010E94760FC23CD107C9F70E94D8
:10011000020A0C94860F0C94000040E855E260E05F
:1001200070E086EF91E00E94320C8EE191E00C9439
:100130000D0160E171E08EE191E00E948708892B5A
:10014000E1F04091140150911501609116017091F8
:100150001701DB01CA010197A109B1098F3F9F4F28
:10016000A140B10530F420E130E086EF91E00E943B
:100170000B0B8EE191E00C94C401089567E070E0F0
:100180008EE191E00C940801CF92DF92EF92FF9202
:10019000CF93DF93EC01882777FD8095982F0E94FD
:1001A000060E6B017C0120E030E040E45FE30E943A
:1001B000B60E20E030E048E452E40E946B0D0E944D
:1001C000D30DC617D707D4F020E030E040EA5FE354
:1001D000C701B6010E94B60E20E030E048E452E4C8
:1001E0000E946B0D20E030E040E85FE30E94030DC9
:1001F0000E94D30D21E06C177D070CF420E0822FC4
:1002000090E0DF91CF91FF90EF90DF90CF90089535
:1002100060931F01109221010895F89482E0809369
:10022000B0008093B10094E69093B3001092B200B6
:10023000809370007894809320011092EC0180915B
:100240001F0160E00C94A1091F920F920FB60F924C
:1002500011242F933F934F935F936F937F938F93CB
:100260009F93AF93BF93EF93FF9380911F010E94E1
:10027000D90920912201309123012F5F3F4F309304
:100280002301209322019091EC01943618F095E01F
:1002900090932001909120019330C1F020F492308E
:1002A00009F058C006C0943059F1953009F052C099
:1002B0004BC081114FC0209122013091230124367F
:1002C000310508F443C01092EC011CC0813009F0E4
:1002D00041C09091EC01E92FF0E020912201309192
:1002E0002301EE0FFF1FE15EFE4F368325839F5FE4
:1002F0009093EC01109223011092220194E021C00E
:10030000811117C09091EC01E92FF0E020912201BA
:1003100030912301EE0FFF1FE15EFE4F36832583F0
:100320009F5F9093EC01109223011092220193E0C1
:1003300008C020912201309123012536310550F06B
:1003400095E09093200106C0811104C01092230112
:100350001092220190912101992329F0811102C06C
:100360002D9A01C02D98FF91EF91BF91AF919F9170
:100370008F917F916F915F914F913F912F910F904E
:100380000FBE0F901F90189582E08093200110926D
:10039000EC010895AF92BF92CF92DF92EF92FF925D
:1003A0000F931F93CF93DF93EB010A851B85F80111
:1003B000828193816CE873E20E94C400892B09F466
:1003C00064C08091EC01843009F075C0F80184812B
:1003D000958166E678E00E94C400892B09F46BC021
:1003E000F8018681978164E972E00E94C400892B3C
:1003F00009F04FC060C0F8018481958160E371E12C
:100400000E94C400892B09F440C00A5F1F4F73E0AB
:10041000A72EB12CC12CD12C7601F80180819181BD
:1004200064E972E00E94C400892B79F1F8018281AD
:1004300093816CED75E00E94C400892B39F0CC0CDF
:10044000DD1CEE1CFF1C6894C0F80DC0F801828111
:1004500093816CEC71E00E94C400892BB1F0CC0C4C
:10046000DD1CEE1CFF1CF2E0AF0EB11C0C5F1F4F39
:1004700083E4A816B10489F680E290E09987888722
:10048000CC82DD82EE82FF820DC000E010E0980198
:1004900018C0198618868FEF9FEFDC018C839D832F
:1004A000AE83BF8381E090E09983888301E010E010
:1004B00020E030E006C08091EC01843408F09BCF4E
:1004C000E4CFB801C901DF91CF911F910F91FF9047
:1004D000EF90DF90CF90BF90AF900895AF92BF9212
:1004E000CF92DF92EF92FF920F931F93CF93DF9300
:1004F000EB018091EC018A3108F47AC00A851B85F2
:10050000F80180819181843F914060F419861886BA
:100510008FEF9FEFDC018C839D83AE83BF8389E0E7
:1005200090E05FC0F8018281938164EC79E00E94E1
:10053000C400892B09F45CC00A5F1F4FB2E0AB2EE8
:10054000B12CC12CD12C760138C0F80132978081B2
:10055000918164EF71E00E94C400892B61F4F1E0A5
:10056000AF1AB108B594A794B986A8862CE0A21654
:10057000B1048CF52DC0F8018081918164E175E0B2
:100580000E94C400892B39F0CC0CDD1CEE1CFF1C32
:100590006894C0F80DC0F801808191816CEB72E025
:1005A0000E94C400892B21F1CC0CDD1CEE1CFF1C29
:1005B000F2E0AF0EB11C0C5F1F4F8091EC01950172
:1005C0002F5F3F4F90E0281739070CF4BECFC7CFFD
:1005D000198618860DC0CC82DD82EE82FF8282E011
:1005E00090E09983888301E010E020E030E003C0D0
:1005F00000E010E09801B801C901DF91CF911F918F
:100600000F91FF90EF90DF90CF90BF90AF90089543
:10061000AF92BF92CF92DF92EF92FF920F931F9310
:10062000CF93DF93EB018091EC018A3108F482C013
:100630000A851B85F801808191818032934050F4B6
:10064000198618868FEF9FEFDC018C839D83AE8324
:10065000BF8367C0F8018281938160E17EE00E94E0
:10066000C400892B09F466C0F8018481958160E19A
:100670007EE00E94C400892B09F45CC0085F1F4F14
:1006800033E0A32EB12CC12CD12C760138C0F80157
:1006900032978081918162E573E00E94C400892BCA
:1006A00061F4F1E0AF1AB108B594A794B986A886B1
:1006B0002CE0A216B1048CF52DC0F8018081918147
:1006C00064EC79E00E94C400892B39F0CC0CDD1C6D
:1006D000EE1CFF1C6894C0F80DC0F8018081918168
:1006E00060E273E00E94C400892B21F1CC0CDD1C78
:1006F000EE1CFF1CF2E0AF0EB11C0C5F1F4F80918F
:10070000EC0195012F5F3F4F90E0281739070CF45B
:10071000BECFC7CF198618860DC0CC82DD82EE828F
:10072000FF8289E090E09983888301E010E020E077
:1007300030E003C000E010E09801B801C901DF918A
:10074000CF911F910F91FF90EF90DF90CF90BF90CE
:10075000AF9008954F925F926F927F92AF92BF9247
:10076000CF92DF92EF92FF920F931F93CF93DF937D
:10077000EB018091EC01823208F467C0EA84FB84CB
:10078000F7018281938162EC71E00E94C400892BA1
:1007900009F45BC0F6E0EF0EF11C02E010E0412C22
:1007A000512C32012DC0F7013297808191816F0168
:1007B00062E078E00E94C400892B39F0440C551C9B
:1007C000661C771C689440F80DC0F6018081918109
:1007D00062E573E00E94C400892BB9F1440C551CFA
:1007E000661C771CF701808191816AEF70E00E949E
:1007F000C400F4E0EF0EF11C892B69F00E5F1F4F6F
:1008000058012FEFA21AB20A8091EC0190E0A816CD
:10081000B9064CF201C085010150110915950795E3
:1008200019870887003111051CF4198618860DC038
:100830004C825D826E827F828AE090E09983888319
:1008400001E010E020E030E003C000E010E098019B
:10085000B801C901DF91CF911F910F91FF90EF90E7
:10086000DF90CF90BF90AF907F906F905F904F9050
:1008700008956F927F928F929F92AF92BF92CF9284
:10088000DF92EF92FF920F931F93CF93DF936A0152
:100890005901DA01CD91DC91FB0184859585C8175A
:1008A000D9070CF056C0CE01880F991F0284F3853A
:1008B000E02DE80FF91F20813181722E632EC17067
:1008C000DD27F1E0CF27209721F4F4E6EF2EF12C7D
:1008D00004C0ECE9EE2EFF24FA94B8016E0D7F1DE2
:1008E000872D962D0E94C400892BD1F44801880CD5
:1008F000991CB4016E0D7F1D872D962D0E94C4009A
:10090000892B89F4B401600F711F6E0D7F1D872D37
:10091000962D0E94C400892BF9F023E030E005C039
:1009200021E030E002C022E030E0D5018D919C91C1
:1009300011970196821793070CF408C0F5011182F4
:100940001082D6018D919C91119701968D939C9365
:1009500005C0C1E0D0E002C0CFEFDFEFCE01DF91F4
:10096000CF911F910F91FF90EF90DF90CF90BF90AC
:10097000AF909F908F907F906F9008952F923F92AD
:100980004F925F926F927F928F929F92AF92BF929F
:10099000CF92DF92EF92FF920F931F93CF93DF934B
:1009A00000D000D000D0CDB7DEB76C017B018091C4
:1009B000EC018D3020F4C12CD12C760177C081E080
:1009C00090E09C838B831A8219824E0123E0820E71
:1009D000911C09E713E0AA24A394B12CAC0EBD1E10
:1009E0009501A401C6010E943904892B21F79501C4
:1009F000A401B701C6010E9439040197E1F69501EF
:100A0000A401B701C6010E943904892BA1F6212C4B
:100A1000312C412C512C32018D829E829A2C8B2CB0
:100A20002EC009E713E0292D382D4D815E81B701D5
:100A3000C6010E9439045C01292D382D4D815E814B
:100A4000B701C6010E943904E1E0AE16B10451F4C9
:100A5000892B09F0B0CF440C551C661C771C689498
:100A600040F80AC0AB2809F0A6CF019709F0A3CF40
:100A7000440C551C661C771CFFEF2F1A3F0A80910F
:100A8000EC0190E02B813C812817390754F2F701E3
:100A900031862086448255826682778283E090E0A8
:100AA00091838083C12CD12C7601C394B601C701F8
:100AB00026960FB6F894DEBF0FBECDBFDF91CF9163
:100AC0001F910F91FF90EF90DF90CF90BF90AF906C
:100AD0009F908F907F906F905F904F903F902F905E
:100AE00008952F923F924F925F926F927F928F92D2
:100AF0009F92AF92BF92CF92DF92EF92FF920F93AD
:100B00001F93CF93DF93CDB7DEB728970FB6F89436
:100B1000DEBF0FBECDBF6C017B01FB0184859585D7
:100B20001816190624F0C12CD12C7601B8C081E02A
:100B300090E09C838B83FB01A284B384F5018281C6
:100B400093816EEC7AE00E94C400892B61F382E00D
:100B500090E09C838B83F5018481958165E173E04E
:100B60000E94C400892BF9F283E090E09C838B8380
:100B70001A8219824E01F3E08F0E911C0CEB11E0EA
:100B800066246394712C6C0E7D1E9301A401B70141
:100B9000C6010E943904892B31F69301A401B701E3
:100BA000C6010E943904019709F0BDCFA12CB12CD8
:100BB000212C312C21018D829E826F82788658C033
:100BC0000CEB11E02F8138854D815E81B701C601A4
:100BD0000E9439043C0183E0A816B10481F00CEBBB
:100BE00011E02F8138854D815E81B701C6010E94D9
:100BF00039044C01E3E0AE16B10479F412C00CEBF9
:100C000011E02F8138854D815E81B701C6010E94B8
:100C100039046816790619F386CF6114710479F0E6
:100C200019C00CEB11E02F8138854D815E81B70131
:100C3000C6010E9439048816990679F374CF8A9404
:100C4000892809F070CF220C331C441C551C689471
:100C500020F80BC06A94672809F065CF892809F04D
:100C600062CF220C331C441C551CEFEFAE1ABE0A97
:100C70002B813C81F70184859585281739070CF471
:100C80009FCFB186A086248235824682578284E037
:100C900090E091838083C12CD12C7601C394B6015E
:100CA000C70128960FB6F894DEBF0FBECDBFDF9107
:100CB000CF911F910F91FF90EF90DF90CF90BF9059
:100CC000AF909F908F907F906F905F904F903F90EC
:100CD0002F9008958F929F92AF92BF92CF92DF9202
:100CE000EF92FF920F931F93CF93DF9300D000D02A
:100CF000CDB7DEB74B01FB01E284F384F7018281BB
:100D0000938162E17EE00E94C400892B09F476C0E1
:100D1000F701848195816AE377E00E94C400892B02
:100D200009F46CC0F6E0EF0EF11C53E0C52ED12C97
:100D300020E030E040E050E0A12CB12C00E010E0D9
:100D4000F701808191816AE572E029833A834B83C0
:100D50005C830E94C400892B09F450C0F701828192
:100D6000938168E774E00E94C40029813A814B8135
:100D70005C81892B39F0B501C80101E00E944B0F5D
:100D8000216016C0F701828193816CE271E02983B2
:100D90003A834B835C830E94C40029813A814B8152
:100DA0005C81892B59F1B501C80101E00E944B0F0C
:100DB0005B018C01F2E0CF0ED11C84E0E80EF11C47
:100DC000E3E6CE16D10409F0BBCFF40124833583CA
:100DD00046835783B501C80100E20E945A0F22835F
:100DE000338387E090E09183808380E390E0918774
:100DF000808701E010E020E030E003C000E010E078
:100E00009801B801C9010F900F900F900F90DF91DA
:100E1000CF911F910F91FF90EF90DF90CF90BF90F7
:100E2000AF909F908F9008958F929F92AF92BF92B4
:100E3000CF92DF92EF92FF920F931F93CF93DF93A6
:100E4000EB018091EC01823209F08FC00A851B858D
:100E5000F801828193816CEB72E00E94C400892BBF
:100E600009F483C08091EC01F801E80FF11DE80F4F
:100E7000F11D3297808191816CEB72E00E94C40079
:100E8000892B09F060C071C08091EC01813208F4B7
:100E900056C0F701848195816CE37FE00E94C40015
:100EA000892B09F44CC087010A5F1F4FE3E0CE2E67
:100EB000D12C812C912C5401F801808191816CEB13
:100EC00072E00E94C400892BD1F1F80182819381E4
:100ED0006CED75E00E94C400892B39F0880C991CD8
:100EE000AA1CBB1C689480F80DC0F8018281938114
:100EF00062EC71E00E94C400892B09F1880C991CF6
:100F0000AA1CBB1CF2E0CF0ED11C0C5F1F4F83E26A
:100F1000C816D10489F6F701EA5BFF4F8081918101
:100F20006CEB72E00E94C400892B49F080E190E0F4
:100F3000998788878C829D82AE82BF820DC000E037
:100F400010E098011FC0198618868FEF9FEFDC0113
:100F50008C839D83AE83BF8388E090E099838883F0
:100F600001E010E020E030E00DC0EA84FB84F701EE
:100F70008281938164EA7FE10E94C400892B09F099
:100F800083CFDDCFB801C901DF91CF911F910F91C0
:100F9000FF90EF90DF90CF90BF90AF909F908F9099
:100FA00008958F929F92AF92BF92CF92DF92EF926D
:100FB000FF927B01BA0180E090E00E94040E4B0199
:100FC0005C01B70180E090E00E94040E6B017C019F
:100FD0002DEC3CEC4CE45FE30E94B60E9B01AC01AF
:100FE000C501B4010E94670D87FD19C02DEC3CECD2
:100FF0004CE45FE3C501B4010E94B60E9B01AC0155
:10100000C701B6010E94670D282F332727FD3095B1
:101010002227330F221F33272F5F3F4F02C020E0CC
:1010200030E0C901FF90EF90DF90CF90BF90AF907C
:101030009F908F9008958F929F92AF92BF92CF9280
:10104000DF92EF92FF920F931F93CF93DF936C0188
:10105000EB01EC84FD8486E0E816F1040CF445C055
:10106000EE0CFF1C06E010E0B5EC8B2EBDE99B2ECC
:10107000BCE1AB2EB1E8BB2E24C08A859B85FC0168
:10108000E00FF11F40815181F8013497E80FF91FFB
:1010900060817181C6010E94D107FC01A501940104
:1010A00063E971E080E091E00E94190F4F01AA24EA
:1010B00097FCA094BA2C86269726A826B9260E5F00
:1010C0001F4F0E151F05C9F68C829D82AE82BF820E
:1010D00080E290E0998788878FEF9FEF99838883DC
:1010E00001E010E020E030E003C000E010E09801F3
:1010F000B801C901DF91CF911F910F91FF90EF903F
:10110000DF90CF90BF90AF909F908F9008950F93F6
:101110001F93CF93DF938C01EB0184E291E09B87D7
:101120008A878091EC018C871D8680912001853013
:1011300009F050C0C8010E94CA01672B682B692BB7
:1011400019F021E030E048C0BE01C8010E946E02E3
:10115000672B682B692BA9F7BE01C8010E94080301
:10116000672B682B692B69F7BE01C8010E94AA038F
:10117000672B682B692B29F7BE01C8010E94BE04AA
:10118000672B682B692BE9F6BE01C8010E94710527
:10119000672B682B692BA9F6BE01C8010E946A065D
:1011A000672B682B692B69F6BE01C8010E941407E2
:1011B000672B682B692B29F6BE01C8010E941B080A
:1011C000672B682B692B09F0BCCF82E0809320014C
:1011D0001092EC0120E030E0C901DF91CF911F9126
:1011E0000F9108951F920F920FB60F9211242F9313
:1011F0003F938F939F93AF93BF938091ED01909115
:10120000EE01A091EF01B091F0013091F501232F93
:101210002D5F2D3720F40196A11DB11D05C0232F90
:101220002A570296A11DB11D2093F5018093ED016F
:101230009093EE01A093EF01B093F0018091F10142
:101240009091F201A091F301B091F4010196A11DDA
:10125000B11D8093F1019093F201A093F301B0933B
:10126000F401BF91AF919F918F913F912F910F907A
:101270000FBE0F901F901895789484B5826084BD3E
:1012800084B5816084BD85B5826085BD85B581608A
:1012900085BDEEE6F0E0808181608083E1E8F0E0EA
:1012A0001082808182608083808181608083E0E819
:1012B000F0E0808181608083E1EBF0E080818460F8
:1012C0008083E0EBF0E0808181608083EAE7F0E0FA
:1012D000808184608083808182608083808181605E
:1012E00080838081806880831092C100089583305C
:1012F00069F028F48130A1F0823011F514C08630F5
:10130000B1F08730C1F08430D9F404C080918000FE
:101310008F7703C0809180008F7D80938000089537
:1013200084B58F7702C084B58F7D84BD0895809188
:10133000B0008F7703C08091B0008F7D8093B000A4
:101340000895CF93DF9390E0FC01E458FF4F449160
:10135000FC01E057FF4F8491882341F190E0880F12
:10136000991FFC01E854FF4F25913491D901825512
:101370009F4FFC0185919491C82FD92F9FB7F89466
:101380008C91611106C0409584238C9388818423BD
:1013900008C0623041F4242F209582238C938881E9
:1013A000842B888302C0842B8C939FBFDF91CF91C5
:1013B0000895CF93DF93282F30E0F901E859FF4FCC
:1013C0008491F901E458FF4FD491F901E057FF4FA0
:1013D000C491CC2389F081110E947709EC2FF0E0B1
:1013E000EE0FFF1FEC55FF4F85919491DC018C911E
:1013F0008D2321E030E011F420E030E0C901DF91DD
:10140000CF9108950E943C090E948D00CEEEDBE052
:101410000E9499002097E1F30E94EE0BF9CFCF9242
:10142000DF92EF92FF920F931F93CF93DF936C01A4
:10143000EB017A01E60EF71E00E010E00BC06991A7
:10144000D601ED91FC910190F081E02DC601099546
:10145000080F191FCE15DF0591F7C801DF91CF9155
:101460001F910F91FF90EF90DF90CF900895DB01D7
:101470000D900020E9F7AD0141505109461B570B73
:10148000DC01ED91FC910280F381E02D0994DC01F7
:10149000ED91FC910190F081E02D09940F931F9341
:1014A000CF93DF93EC016DE00E94470A8C016AE064
:1014B000CE010E94470A9C01200F311FC901DF9114
:1014C000CF911F910F9108954F925F926F927F92EB
:1014D0009F92AF92BF92CF92DF92EF92FF920F93C3
:1014E0001F93CF93DF93CDB7DEB7A1970FB6F894D4
:1014F000DEBF0FBECDBF5C016A017B01922E19A237
:1015000081E0821710F08AE0982E8E010F5D1F4F48
:10151000492C512C612C712CC701B601A3019201F9
:101520000E94290F8C2D929E8019112401501109BF
:101530008A3014F4805D01C0895CF8018083690100
:101540007A01C114D104E104F10431F7B801C501F5
:101550000E94370AA1960FB6F894DEBF0FBECDBF2A
:10156000DF91CF911F910F91FF90EF90DF90CF907F
:10157000BF90AF909F907F906F905F904F90089535
:10158000CF92DF92EF92FF920F931F93CF93DF934F
:10159000EC016A017B012115310579F4E881F981BB
:1015A0000190F081E02D642FDF91CF911F910F9179
:1015B000FF90EF90DF90CF9009942A30310519F415
:1015C00077FD0EC02AE0B701A601CE01DF91CF91D1
:1015D0001F910F91FF90EF90DF90CF900C94640AD1
:1015E0006DE20E94470A8C0144275527BA014C1925
:1015F0005D096E097F092AE0CE010E94640A080F86
:10160000191FC801DF91CF911F910F91FF90EF90AB
:10161000DF90CF9008950F931F93CF93DF93EC014A
:101620000E94C00A8C01CE010E944E0A9C01200F2C
:10163000311FC901DF91CF911F910F910895FC01D6
:1016400084859585FC01E05CFF4F20813181FC01A0
:10165000EE5BFF4F80819181281B390B2F7333275D
:10166000C9010895FC0184859585FC01E05CFF4F6C
:1016700040815181FC01EE5BFF4F20813181421797
:10168000530741F00190F081E02DE80FF91F208110
:1016900030E002C02FEF3FEFC9010895FC018485BF
:1016A0009585FC01E05CFF4F40815181FC01EE5BC0
:1016B000FF4F208131814217530781F0A081B18112
:1016C000A80FB91F8C91208131812F5F3F4F2F735D
:1016D000332731832083282F30E002C02FEF3FEFE4
:1016E000C9010895FC0186859785FC01E05CFF4FE8
:1016F000DC01AE5BBF4F408151812D913C91119730
:1017000042175307C1F70895CF93DF93FC018685F5
:101710009785DC01A05CBF4F2D913C9111972F5F05
:101720003F4F2F733327EC01CE5BDF4F4881598148
:1017300024173507D9F30D90BC91A02DA80FB91F20
:101740006C93A685B785A05CBF4F11963C932E93F2
:10175000A689B7892C9181E090E0058C02C0880FA2
:10176000991F0A94E2F7282B2C9381E090E0DF91F7
:10177000CF91089508951F920F920FB60F921124E2
:101780002F933F934F938F939F93EF93FF934091AA
:10179000C6008091990290919A0201968F739927C1
:1017A00020919B0230919C028217930759F0E0919F
:1017B0009902F0919A02E75AFD4F408390939A0262
:1017C00080939902FF91EF919F918F914F913F915B
:1017D0002F910F900FBE0F901F90189586EF91E0FC
:1017E0000E941F0B892B11F00C94BA0B08951F92C5
:1017F0000F920FB60F9211242F933F938F939F93C5
:10180000EF93FF9320915502309156028091570239
:10181000909158022817390731F48091C1008F7DCB
:101820008093C10014C0E0915702F0915802EB5E22
:10183000FD4F2081809157029091580201968F733D
:10184000992790935802809357022093C600FF91E6
:10185000EF919F918F913F912F910F900FBE0F901D
:101860001F901895CF92DF92EF92FF92CF93DF9364
:10187000EC016A017B01411581EE58076105710594
:10188000F9F0EC89FD8981E090E00E8C02C0880FB0
:10189000991F0A94E2F7808360E079E08DE390E09D
:1018A000A70196010E94290F2150310941095109D0
:1018B0005695479537952795211580E1380798F07B
:1018C000EC89FD89108260E874E88EE190E0A70160
:1018D00096010E94290F215031094109510956955D
:1018E000479537952795E889F9893083EA89FB89F7
:1018F0002083EE89FF89408181E090E09C010A8C81
:1019000002C0220F331F0A94E2F7422B4083EE8974
:10191000FF8940819C010B8C02C0220F331F0A9467
:10192000E2F7422B4083EE89FF8940819C010C8CB9
:1019300002C0220F331F0A94E2F7422B4083EE8944
:10194000FF8920810D8C02C0880F991F0A94E2F74D
:10195000809582238083DF91CF91FF90EF90DF907D
:10196000CF9008951092F9011092F80188EE93E05B
:10197000A0E0B0E08093FA019093FB01A093FC01FA
:10198000B093FD0184E091E09093F7018093F6011C
:1019900089E592E0909303028093020285E192E050
:1019A000909305028093040285EC90E090930702E7
:1019B0008093060284EC90E09093090280930802E1
:1019C00080EC90E090930B0280930A0281EC90E00F
:1019D00090930D0280930C0286EC90E090930F029E
:1019E00080930E0284E08093100283E080931102C2
:1019F00087E08093120285E08093130281E0809358
:101A0000140208955058BB27AA270ED075C166D17D
:101A100030F06BD120F031F49F3F11F41EF45BC124
:101A20000EF4E095E7FB51C1E92F77D180F3BA17A7
:101A3000620773078407950718F071F49EF58FC14C
:101A40000EF4E0950B2EBA2FA02D0B01B9019001D9
:101A50000C01CA01A0011124FF27591B99F0593F1D
:101A600050F4503E68F11A16F040A22F232F342F65
:101A70004427585FF3CF469537952795A795F040B3
:101A80005395C9F77EF41F16BA0B620B730B840BC8
:101A9000BAF09150A1F0FF0FBB1F661F771F881F80
:101AA000C2F70EC0BA0F621F731F841F48F48795D8
:101AB00077956795B795F7959E3F08F0B3CF9395C7
:101AC000880F08F09927EE0F979587950895D9D03C
:101AD00008F481E008950CD00FC107D140F0FED08A
:101AE00030F021F45F3F19F0F0C0511139C1F3C05B
:101AF00014D198F39923C9F35523B1F3951B550BD2
:101B0000BB27AA2762177307840738F09F5F5F4FD0
:101B1000220F331F441FAA1FA9F333D00E2E3AF011
:101B2000E0E830D091505040E695001CCAF729D02B
:101B3000FE2F27D0660F771F881FBB1F261737077A
:101B40004807AB07B0E809F0BB0B802DBF01FF27AA
:101B500093585F4F2AF09E3F510568F0B6C000C110
:101B60005F3FECF3983EDCF3869577956795B795E4
:101B7000F7959F5FC9F7880F911D9695879597F9FF
:101B80000895E1E0660F771F881FBB1F6217730778
:101B90008407BA0720F0621B730B840BBA0BEE1F8D
:101BA00088F7E095089504D06894B111D9C00895DC
:101BB000BCD088F09F5790F0B92F9927B751A0F06B
:101BC000D1F0660F771F881F991F1AF0BA95C9F7D1
:101BD00012C0B13081F0C3D0B1E00895C0C0672F0A
:101BE000782F8827B85F39F0B93FCCF38695779581
:101BF0006795B395D9F73EF490958095709561956A
:101C00007F4F8F4F9F4F0895E89409C097FB3EF494
:101C100090958095709561957F4F8F4F9F4F992339
:101C2000A9F0F92F96E9BB279395F69587957795B7
:101C30006795B795F111F8CFFAF4BB0F11F460FF77
:101C40001BC06F5F7F4F8F4F9F4F16C0882311F0CF
:101C500096E911C0772321F09EE8872F762F05C0E3
:101C6000662371F096E8862F70E060E02AF09A957E
:101C7000660F771F881FDAF7880F9695879597F973
:101C80000895990F0008550FAA0BE0E8FEEF16160D
:101C90001706E807F907C0F012161306E407F50760
:101CA00098F0621B730B840B950B39F40A2661F0D4
:101CB000232B242B252B21F408950A2609F4A14077
:101CC000A6958FEF811D811D089597F99F6780E884
:101CD00070E060E008959FEF80EC089500240A947E
:101CE0001616170618060906089500240A941216F7
:101CF0001306140605060895092E0394000C11F42A
:101D0000882352F0BB0F40F4BF2B11F460FF04C0D6
:101D10006F5F7F4F8F4F9F4F089557FD9058440F2F
:101D2000551F59F05F3F71F04795880F97FB991F3A
:101D300061F09F3F79F087950895121613061406F7
:101D4000551FF2CF4695F1DF08C016161706180684
:101D5000991FF1CF86957105610508940895E8945F
:101D6000BB2766277727CB0197F908950BD0C4CFFF
:101D7000B5DF28F0BADF18F0952309F0A6CFABCF76
:101D80001124EECFCADFA0F3959FD1F3950F50E059
:101D9000551F629FF001729FBB27F00DB11D639F1D
:101DA000AA27F00DB11DAA1F649F6627B00DA11DC3
:101DB000661F829F2227B00DA11D621F739FB00D69
:101DC000A11D621F839FA00D611D221F749F3327D9
:101DD000A00D611D231F849F600D211D822F762F72
:101DE0006A2F11249F5750408AF0E1F088234AF06F
:101DF000EE0FFF1FBB1F661F771F881F91505040BB
:101E0000A9F79E3F510570F060CFAACF5F3FECF37A
:101E1000983EDCF3869577956795B795F795E795A6
:101E20009F5FC1F7FE2B880F911D9695879597F9B7
:101E30000895DB018F939F930E94690FBF91AF912B
:101E4000A29F800D911DA39F900DB29F900D112414
:101E50000895A1E21A2EAA1BBB1BFD010DC0AA1FEB
:101E6000BB1FEE1FFF1FA217B307E407F50720F003
:101E7000A21BB30BE40BF50B661F771F881F991F7E
:101E80001A9469F760957095809590959B01AC01C7
:101E9000BD01CF0108950F930F7351F0220F331F2F
:101EA000441F551F661F771F881F991F0A95B1F79A
:101EB0000F9108950F930F7351F09695879577952D
:101EC000679557954795379527950A95B1F70F91DF
:101ED00008950E947A0FA59F900DB49F900DA49F26
:101EE000800D911D11240895EE0FFF1F0590F491B0
:101EF000E02D0994A29FB001B39FC001A39F01D020
:101F0000B29F700D811D1124911D0895F894FFCF8B
:101F100000000000840B0F0A1F0B4E0B320B720BDC
:00000001FF
